{
  "_format": "hh-sol-artifact-1",
  "contractName": "PokemonNFT",
  "sourceName": "contracts/PokemonNFT.sol",
  "abi": [
    {
      "inputs": [],
      "stateMutability": "nonpayable",
      "type": "constructor"
    },
    {
      "inputs": [
        {
          "internalType": "address",
          "name": "sender",
          "type": "address"
        },
        {
          "internalType": "uint256",
          "name": "tokenId",
          "type": "uint256"
        },
        {
          "internalType": "address",
          "name": "owner",
          "type": "address"
        }
      ],
      "name": "ERC721IncorrectOwner",
      "type": "error"
    },
    {
      "inputs": [
        {
          "internalType": "address",
          "name": "operator",
          "type": "address"
        },
        {
          "internalType": "uint256",
          "name": "tokenId",
          "type": "uint256"
        }
      ],
      "name": "ERC721InsufficientApproval",
      "type": "error"
    },
    {
      "inputs": [
        {
          "internalType": "address",
          "name": "approver",
          "type": "address"
        }
      ],
      "name": "ERC721InvalidApprover",
      "type": "error"
    },
    {
      "inputs": [
        {
          "internalType": "address",
          "name": "operator",
          "type": "address"
        }
      ],
      "name": "ERC721InvalidOperator",
      "type": "error"
    },
    {
      "inputs": [
        {
          "internalType": "address",
          "name": "owner",
          "type": "address"
        }
      ],
      "name": "ERC721InvalidOwner",
      "type": "error"
    },
    {
      "inputs": [
        {
          "internalType": "address",
          "name": "receiver",
          "type": "address"
        }
      ],
      "name": "ERC721InvalidReceiver",
      "type": "error"
    },
    {
      "inputs": [
        {
          "internalType": "address",
          "name": "sender",
          "type": "address"
        }
      ],
      "name": "ERC721InvalidSender",
      "type": "error"
    },
    {
      "inputs": [
        {
          "internalType": "uint256",
          "name": "tokenId",
          "type": "uint256"
        }
      ],
      "name": "ERC721NonexistentToken",
      "type": "error"
    },
    {
      "inputs": [
        {
          "internalType": "address",
          "name": "owner",
          "type": "address"
        }
      ],
      "name": "OwnableInvalidOwner",
      "type": "error"
    },
    {
      "inputs": [
        {
          "internalType": "address",
          "name": "account",
          "type": "address"
        }
      ],
      "name": "OwnableUnauthorizedAccount",
      "type": "error"
    },
    {
      "anonymous": false,
      "inputs": [
        {
          "indexed": true,
          "internalType": "address",
          "name": "owner",
          "type": "address"
        },
        {
          "indexed": true,
          "internalType": "address",
          "name": "approved",
          "type": "address"
        },
        {
          "indexed": true,
          "internalType": "uint256",
          "name": "tokenId",
          "type": "uint256"
        }
      ],
      "name": "Approval",
      "type": "event"
    },
    {
      "anonymous": false,
      "inputs": [
        {
          "indexed": true,
          "internalType": "address",
          "name": "owner",
          "type": "address"
        },
        {
          "indexed": true,
          "internalType": "address",
          "name": "operator",
          "type": "address"
        },
        {
          "indexed": false,
          "internalType": "bool",
          "name": "approved",
          "type": "bool"
        }
      ],
      "name": "ApprovalForAll",
      "type": "event"
    },
    {
      "anonymous": false,
      "inputs": [
        {
          "indexed": true,
          "internalType": "address",
          "name": "previousOwner",
          "type": "address"
        },
        {
          "indexed": true,
          "internalType": "address",
          "name": "newOwner",
          "type": "address"
        }
      ],
      "name": "OwnershipTransferred",
      "type": "event"
    },
    {
      "anonymous": false,
      "inputs": [
        {
          "indexed": true,
          "internalType": "address",
          "name": "from",
          "type": "address"
        },
        {
          "indexed": true,
          "internalType": "address",
          "name": "to",
          "type": "address"
        },
        {
          "indexed": true,
          "internalType": "uint256",
          "name": "tokenId",
          "type": "uint256"
        }
      ],
      "name": "Transfer",
      "type": "event"
    },
    {
      "inputs": [
        {
          "internalType": "address",
          "name": "to",
          "type": "address"
        },
        {
          "internalType": "uint256",
          "name": "tokenId",
          "type": "uint256"
        }
      ],
      "name": "approve",
      "outputs": [],
      "stateMutability": "nonpayable",
      "type": "function"
    },
    {
      "inputs": [
        {
          "internalType": "address",
          "name": "owner",
          "type": "address"
        }
      ],
      "name": "balanceOf",
      "outputs": [
        {
          "internalType": "uint256",
          "name": "",
          "type": "uint256"
        }
      ],
      "stateMutability": "view",
      "type": "function"
    },
    {
      "inputs": [
        {
          "internalType": "uint256",
          "name": "tokenId",
          "type": "uint256"
        }
      ],
      "name": "getApproved",
      "outputs": [
        {
          "internalType": "address",
          "name": "",
          "type": "address"
        }
      ],
      "stateMutability": "view",
      "type": "function"
    },
    {
      "inputs": [
        {
          "internalType": "address",
          "name": "owner",
          "type": "address"
        },
        {
          "internalType": "address",
          "name": "operator",
          "type": "address"
        }
      ],
      "name": "isApprovedForAll",
      "outputs": [
        {
          "internalType": "bool",
          "name": "",
          "type": "bool"
        }
      ],
      "stateMutability": "view",
      "type": "function"
    },
    {
      "inputs": [
        {
          "internalType": "address",
          "name": "to",
          "type": "address"
        },
        {
          "internalType": "string",
          "name": "metadataURI",
          "type": "string"
        }
      ],
      "name": "mint",
      "outputs": [],
      "stateMutability": "nonpayable",
      "type": "function"
    },
    {
      "inputs": [],
      "name": "name",
      "outputs": [
        {
          "internalType": "string",
          "name": "",
          "type": "string"
        }
      ],
      "stateMutability": "view",
      "type": "function"
    },
    {
      "inputs": [],
      "name": "nextId",
      "outputs": [
        {
          "internalType": "uint256",
          "name": "",
          "type": "uint256"
        }
      ],
      "stateMutability": "view",
      "type": "function"
    },
    {
      "inputs": [],
      "name": "owner",
      "outputs": [
        {
          "internalType": "address",
          "name": "",
          "type": "address"
        }
      ],
      "stateMutability": "view",
      "type": "function"
    },
    {
      "inputs": [
        {
          "internalType": "uint256",
          "name": "tokenId",
          "type": "uint256"
        }
      ],
      "name": "ownerOf",
      "outputs": [
        {
          "internalType": "address",
          "name": "",
          "type": "address"
        }
      ],
      "stateMutability": "view",
      "type": "function"
    },
    {
      "inputs": [],
      "name": "renounceOwnership",
      "outputs": [],
      "stateMutability": "nonpayable",
      "type": "function"
    },
    {
      "inputs": [
        {
          "internalType": "address",
          "name": "from",
          "type": "address"
        },
        {
          "internalType": "address",
          "name": "to",
          "type": "address"
        },
        {
          "internalType": "uint256",
          "name": "tokenId",
          "type": "uint256"
        }
      ],
      "name": "safeTransferFrom",
      "outputs": [],
      "stateMutability": "nonpayable",
      "type": "function"
    },
    {
      "inputs": [
        {
          "internalType": "address",
          "name": "from",
          "type": "address"
        },
        {
          "internalType": "address",
          "name": "to",
          "type": "address"
        },
        {
          "internalType": "uint256",
          "name": "tokenId",
          "type": "uint256"
        },
        {
          "internalType": "bytes",
          "name": "data",
          "type": "bytes"
        }
      ],
      "name": "safeTransferFrom",
      "outputs": [],
      "stateMutability": "nonpayable",
      "type": "function"
    },
    {
      "inputs": [
        {
          "internalType": "address",
          "name": "operator",
          "type": "address"
        },
        {
          "internalType": "bool",
          "name": "approved",
          "type": "bool"
        }
      ],
      "name": "setApprovalForAll",
      "outputs": [],
      "stateMutability": "nonpayable",
      "type": "function"
    },
    {
      "inputs": [
        {
          "internalType": "bytes4",
          "name": "interfaceId",
          "type": "bytes4"
        }
      ],
      "name": "supportsInterface",
      "outputs": [
        {
          "internalType": "bool",
          "name": "",
          "type": "bool"
        }
      ],
      "stateMutability": "view",
      "type": "function"
    },
    {
      "inputs": [],
      "name": "symbol",
      "outputs": [
        {
          "internalType": "string",
          "name": "",
          "type": "string"
        }
      ],
      "stateMutability": "view",
      "type": "function"
    },
    {
      "inputs": [
        {
          "internalType": "uint256",
          "name": "tokenId",
          "type": "uint256"
        }
      ],
      "name": "tokenURI",
      "outputs": [
        {
          "internalType": "string",
          "name": "",
          "type": "string"
        }
      ],
      "stateMutability": "view",
      "type": "function"
    },
    {
      "inputs": [
        {
          "internalType": "address",
          "name": "from",
          "type": "address"
        },
        {
          "internalType": "address",
          "name": "to",
          "type": "address"
        },
        {
          "internalType": "uint256",
          "name": "tokenId",
          "type": "uint256"
        }
      ],
      "name": "transferFrom",
      "outputs": [],
      "stateMutability": "nonpayable",
      "type": "function"
    },
    {
      "inputs": [
        {
          "internalType": "address",
          "name": "newOwner",
          "type": "address"
        }
      ],
      "name": "transferOwnership",
      "outputs": [],
      "stateMutability": "nonpayable",
      "type": "function"
    }
  ],
  "bytecode": "0x608060405260016007553480156200001657600080fd5b50336040518060400160405280600a81526020017f506f6b656d6f6e4e4654000000000000000000000000000000000000000000008152506040518060400160405280600481526020017f504b4d4e00000000000000000000000000000000000000000000000000000000815250816000908162000095919062000477565b508060019081620000a7919062000477565b505050600073ffffffffffffffffffffffffffffffffffffffff168173ffffffffffffffffffffffffffffffffffffffff16036200011f5760006040517f1e4fbdf7000000000000000000000000000000000000000000000000000000008152600401620001169190620005a3565b60405180910390fd5b62000130816200013760201b60201c565b50620005c0565b6000600660009054906101000a900473ffffffffffffffffffffffffffffffffffffffff16905081600660006101000a81548173ffffffffffffffffffffffffffffffffffffffff021916908373ffffffffffffffffffffffffffffffffffffffff1602179055508173ffffffffffffffffffffffffffffffffffffffff168173ffffffffffffffffffffffffffffffffffffffff167f8be0079c531659141344cd1fd0a4f28419497f9722a3daafe3b4186f6b6457e060405160405180910390a35050565b600081519050919050565b7f4e487b7100000000000000000000000000000000000000000000000000000000600052604160045260246000fd5b7f4e487b7100000000000000000000000000000000000000000000000000000000600052602260045260246000fd5b600060028204905060018216806200027f57607f821691505b60208210810362000295576200029462000237565b5b50919050565b60008190508160005260206000209050919050565b60006020601f8301049050919050565b600082821b905092915050565b600060088302620002ff7fffffffffffffffffffffffffffffffffffffffffffffffffffffffffffffffff82620002c0565b6200030b8683620002c0565b95508019841693508086168417925050509392505050565b6000819050919050565b6000819050919050565b600062000358620003526200034c8462000323565b6200032d565b62000323565b9050919050565b6000819050919050565b620003748362000337565b6200038c62000383826200035f565b848454620002cd565b825550505050565b600090565b620003a362000394565b620003b081848462000369565b505050565b5b81811015620003d857620003cc60008262000399565b600181019050620003b6565b5050565b601f8211156200042757620003f1816200029b565b620003fc84620002b0565b810160208510156200040c578190505b620004246200041b85620002b0565b830182620003b5565b50505b505050565b600082821c905092915050565b60006200044c600019846008026200042c565b1980831691505092915050565b600062000467838362000439565b9150826002028217905092915050565b6200048282620001fd565b67ffffffffffffffff8111156200049e576200049d62000208565b5b620004aa825462000266565b620004b7828285620003dc565b600060209050601f831160018114620004ef5760008415620004da578287015190505b620004e6858262000459565b86555062000556565b601f198416620004ff866200029b565b60005b82811015620005295784890151825560018201915060208501945060208101905062000502565b8683101562000549578489015162000545601f89168262000439565b8355505b6001600288020188555050505b505050505050565b600073ffffffffffffffffffffffffffffffffffffffff82169050919050565b60006200058b826200055e565b9050919050565b6200059d816200057e565b82525050565b6000602082019050620005ba600083018462000592565b92915050565b61225380620005d06000396000f3fe608060405234801561001057600080fd5b50600436106101165760003560e01c8063715018a6116100a2578063b88d4fde11610071578063b88d4fde146102cd578063c87b56dd146102e9578063d0def52114610319578063e985e9c514610335578063f2fde38b1461036557610116565b8063715018a61461026b5780638da5cb5b1461027557806395d89b4114610293578063a22cb465146102b157610116565b806323b872dd116100e957806323b872dd146101b557806342842e0e146101d157806361b8ce8c146101ed5780636352211e1461020b57806370a082311461023b57610116565b806301ffc9a71461011b57806306fdde031461014b578063081812fc14610169578063095ea7b314610199575b600080fd5b6101356004803603810190610130919061173a565b610381565b6040516101429190611782565b60405180910390f35b610153610463565b604051610160919061182d565b60405180910390f35b610183600480360381019061017e9190611885565b6104f5565b60405161019091906118f3565b60405180910390f35b6101b360048036038101906101ae919061193a565b610511565b005b6101cf60048036038101906101ca919061197a565b610527565b005b6101eb60048036038101906101e6919061197a565b610629565b005b6101f5610649565b60405161020291906119dc565b60405180910390f35b61022560048036038101906102209190611885565b61064f565b60405161023291906118f3565b60405180910390f35b610255600480360381019061025091906119f7565b610661565b60405161026291906119dc565b60405180910390f35b61027361071b565b005b61027d61072f565b60405161028a91906118f3565b60405180910390f35b61029b610759565b6040516102a8919061182d565b60405180910390f35b6102cb60048036038101906102c69190611a50565b6107eb565b005b6102e760048036038101906102e29190611bc5565b610801565b005b61030360048036038101906102fe9190611885565b610826565b604051610310919061182d565b60405180910390f35b610333600480360381019061032e9190611ce9565b6108cb565b005b61034f600480360381019061034a9190611d45565b610922565b60405161035c9190611782565b60405180910390f35b61037f600480360381019061037a91906119f7565b6109b6565b005b60007f80ac58cd000000000000000000000000000000000000000000000000000000007bffffffffffffffffffffffffffffffffffffffffffffffffffffffff1916827bffffffffffffffffffffffffffffffffffffffffffffffffffffffff1916148061044c57507f5b5e139f000000000000000000000000000000000000000000000000000000007bffffffffffffffffffffffffffffffffffffffffffffffffffffffff1916827bffffffffffffffffffffffffffffffffffffffffffffffffffffffff1916145b8061045c575061045b82610a3c565b5b9050919050565b60606000805461047290611db4565b80601f016020809104026020016040519081016040528092919081815260200182805461049e90611db4565b80156104eb5780601f106104c0576101008083540402835291602001916104eb565b820191906000526020600020905b8154815290600101906020018083116104ce57829003601f168201915b5050505050905090565b600061050082610aa6565b5061050a82610b2e565b9050919050565b610523828261051e610b6b565b610b73565b5050565b600073ffffffffffffffffffffffffffffffffffffffff168273ffffffffffffffffffffffffffffffffffffffff16036105995760006040517f64a0ae9200000000000000000000000000000000000000000000000000000000815260040161059091906118f3565b60405180910390fd5b60006105ad83836105a8610b6b565b610b85565b90508373ffffffffffffffffffffffffffffffffffffffff168173ffffffffffffffffffffffffffffffffffffffff1614610623578382826040517f64283d7b00000000000000000000000000000000000000000000000000000000815260040161061a93929190611de5565b60405180910390fd5b50505050565b61064483838360405180602001604052806000815250610801565b505050565b60075481565b600061065a82610aa6565b9050919050565b60008073ffffffffffffffffffffffffffffffffffffffff168273ffffffffffffffffffffffffffffffffffffffff16036106d45760006040517f89c62b640000000000000000000000000000000000000000000000000000000081526004016106cb91906118f3565b60405180910390fd5b600360008373ffffffffffffffffffffffffffffffffffffffff1673ffffffffffffffffffffffffffffffffffffffff168152602001908152602001600020549050919050565b610723610d9f565b61072d6000610e26565b565b6000600660009054906101000a900473ffffffffffffffffffffffffffffffffffffffff16905090565b60606001805461076890611db4565b80601f016020809104026020016040519081016040528092919081815260200182805461079490611db4565b80156107e15780601f106107b6576101008083540402835291602001916107e1565b820191906000526020600020905b8154815290600101906020018083116107c457829003601f168201915b5050505050905090565b6107fd6107f6610b6b565b8383610eec565b5050565b61080c848484610527565b610820610817610b6b565b8585858561105b565b50505050565b606060086000838152602001908152602001600020805461084690611db4565b80601f016020809104026020016040519081016040528092919081815260200182805461087290611db4565b80156108bf5780601f10610894576101008083540402835291602001916108bf565b820191906000526020600020905b8154815290600101906020018083116108a257829003601f168201915b50505050509050919050565b6108d3610d9f565b600060075490506108e4838261120c565b816008600083815260200190815260200160002090816109049190611fc8565b5060076000815480929190610918906120c9565b9190505550505050565b6000600560008473ffffffffffffffffffffffffffffffffffffffff1673ffffffffffffffffffffffffffffffffffffffff16815260200190815260200160002060008373ffffffffffffffffffffffffffffffffffffffff1673ffffffffffffffffffffffffffffffffffffffff16815260200190815260200160002060009054906101000a900460ff16905092915050565b6109be610d9f565b600073ffffffffffffffffffffffffffffffffffffffff168173ffffffffffffffffffffffffffffffffffffffff1603610a305760006040517f1e4fbdf7000000000000000000000000000000000000000000000000000000008152600401610a2791906118f3565b60405180910390fd5b610a3981610e26565b50565b60007f01ffc9a7000000000000000000000000000000000000000000000000000000007bffffffffffffffffffffffffffffffffffffffffffffffffffffffff1916827bffffffffffffffffffffffffffffffffffffffffffffffffffffffff1916149050919050565b600080610ab28361122a565b9050600073ffffffffffffffffffffffffffffffffffffffff168173ffffffffffffffffffffffffffffffffffffffff1603610b2557826040517f7e273289000000000000000000000000000000000000000000000000000000008152600401610b1c91906119dc565b60405180910390fd5b80915050919050565b60006004600083815260200190815260200160002060009054906101000a900473ffffffffffffffffffffffffffffffffffffffff169050919050565b600033905090565b610b808383836001611267565b505050565b600080610b918461122a565b9050600073ffffffffffffffffffffffffffffffffffffffff168373ffffffffffffffffffffffffffffffffffffffff1614610bd357610bd281848661142c565b5b600073ffffffffffffffffffffffffffffffffffffffff168173ffffffffffffffffffffffffffffffffffffffff1614610c6457610c15600085600080611267565b6001600360008373ffffffffffffffffffffffffffffffffffffffff1673ffffffffffffffffffffffffffffffffffffffff168152602001908152602001600020600082825403925050819055505b600073ffffffffffffffffffffffffffffffffffffffff168573ffffffffffffffffffffffffffffffffffffffff1614610ce7576001600360008773ffffffffffffffffffffffffffffffffffffffff1673ffffffffffffffffffffffffffffffffffffffff168152602001908152602001600020600082825401925050819055505b846002600086815260200190815260200160002060006101000a81548173ffffffffffffffffffffffffffffffffffffffff021916908373ffffffffffffffffffffffffffffffffffffffff160217905550838573ffffffffffffffffffffffffffffffffffffffff168273ffffffffffffffffffffffffffffffffffffffff167fddf252ad1be2c89b69c2b068fc378daa952ba7f163c4a11628f55a4df523b3ef60405160405180910390a4809150509392505050565b610da7610b6b565b73ffffffffffffffffffffffffffffffffffffffff16610dc561072f565b73ffffffffffffffffffffffffffffffffffffffff1614610e2457610de8610b6b565b6040517f118cdaa7000000000000000000000000000000000000000000000000000000008152600401610e1b91906118f3565b60405180910390fd5b565b6000600660009054906101000a900473ffffffffffffffffffffffffffffffffffffffff16905081600660006101000a81548173ffffffffffffffffffffffffffffffffffffffff021916908373ffffffffffffffffffffffffffffffffffffffff1602179055508173ffffffffffffffffffffffffffffffffffffffff168173ffffffffffffffffffffffffffffffffffffffff167f8be0079c531659141344cd1fd0a4f28419497f9722a3daafe3b4186f6b6457e060405160405180910390a35050565b600073ffffffffffffffffffffffffffffffffffffffff168273ffffffffffffffffffffffffffffffffffffffff1603610f5d57816040517f5b08ba18000000000000000000000000000000000000000000000000000000008152600401610f5491906118f3565b60405180910390fd5b80600560008573ffffffffffffffffffffffffffffffffffffffff1673ffffffffffffffffffffffffffffffffffffffff16815260200190815260200160002060008473ffffffffffffffffffffffffffffffffffffffff1673ffffffffffffffffffffffffffffffffffffffff16815260200190815260200160002060006101000a81548160ff0219169083151502179055508173ffffffffffffffffffffffffffffffffffffffff168373ffffffffffffffffffffffffffffffffffffffff167f17307eab39ab6107e8899845ad3d59bd9653f200f220920489ca2b5937696c318360405161104e9190611782565b60405180910390a3505050565b60008373ffffffffffffffffffffffffffffffffffffffff163b1115611205578273ffffffffffffffffffffffffffffffffffffffff1663150b7a02868685856040518563ffffffff1660e01b81526004016110ba9493929190612166565b6020604051808303816000875af19250505080156110f657506040513d601f19601f820116820180604052508101906110f391906121c7565b60015b61117a573d8060008114611126576040519150601f19603f3d011682016040523d82523d6000602084013e61112b565b606091505b50600081510361117257836040517f64a0ae9200000000000000000000000000000000000000000000000000000000815260040161116991906118f3565b60405180910390fd5b805160208201fd5b63150b7a0260e01b7bffffffffffffffffffffffffffffffffffffffffffffffffffffffff1916817bffffffffffffffffffffffffffffffffffffffffffffffffffffffff19161461120357836040517f64a0ae920000000000000000000000000000000000000000000000000000000081526004016111fa91906118f3565b60405180910390fd5b505b5050505050565b6112268282604051806020016040528060008152506114f0565b5050565b60006002600083815260200190815260200160002060009054906101000a900473ffffffffffffffffffffffffffffffffffffffff169050919050565b80806112a05750600073ffffffffffffffffffffffffffffffffffffffff168273ffffffffffffffffffffffffffffffffffffffff1614155b156113d45760006112b084610aa6565b9050600073ffffffffffffffffffffffffffffffffffffffff168373ffffffffffffffffffffffffffffffffffffffff161415801561131b57508273ffffffffffffffffffffffffffffffffffffffff168173ffffffffffffffffffffffffffffffffffffffff1614155b801561132e575061132c8184610922565b155b1561137057826040517fa9fbf51f00000000000000000000000000000000000000000000000000000000815260040161136791906118f3565b60405180910390fd5b81156113d257838573ffffffffffffffffffffffffffffffffffffffff168273ffffffffffffffffffffffffffffffffffffffff167f8c5be1e5ebec7d5bd14f71427d1e84f3dd0314c0f7b2291e5b200ac8c7c3b92560405160405180910390a45b505b836004600085815260200190815260200160002060006101000a81548173ffffffffffffffffffffffffffffffffffffffff021916908373ffffffffffffffffffffffffffffffffffffffff16021790555050505050565b611437838383611514565b6114eb57600073ffffffffffffffffffffffffffffffffffffffff168373ffffffffffffffffffffffffffffffffffffffff16036114ac57806040517f7e2732890000000000000000000000000000000000000000000000000000000081526004016114a391906119dc565b60405180910390fd5b81816040517f177e802f0000000000000000000000000000000000000000000000000000000081526004016114e29291906121f4565b60405180910390fd5b505050565b6114fa83836115d5565b61150f611505610b6b565b600085858561105b565b505050565b60008073ffffffffffffffffffffffffffffffffffffffff168373ffffffffffffffffffffffffffffffffffffffff16141580156115cc57508273ffffffffffffffffffffffffffffffffffffffff168473ffffffffffffffffffffffffffffffffffffffff16148061158d575061158c8484610922565b5b806115cb57508273ffffffffffffffffffffffffffffffffffffffff166115b383610b2e565b73ffffffffffffffffffffffffffffffffffffffff16145b5b90509392505050565b600073ffffffffffffffffffffffffffffffffffffffff168273ffffffffffffffffffffffffffffffffffffffff16036116475760006040517f64a0ae9200000000000000000000000000000000000000000000000000000000815260040161163e91906118f3565b60405180910390fd5b600061165583836000610b85565b9050600073ffffffffffffffffffffffffffffffffffffffff168173ffffffffffffffffffffffffffffffffffffffff16146116c95760006040517f73c6ac6e0000000000000000000000000000000000000000000000000000000081526004016116c091906118f3565b60405180910390fd5b505050565b6000604051905090565b600080fd5b600080fd5b60007fffffffff0000000000000000000000000000000000000000000000000000000082169050919050565b611717816116e2565b811461172257600080fd5b50565b6000813590506117348161170e565b92915050565b6000602082840312156117505761174f6116d8565b5b600061175e84828501611725565b91505092915050565b60008115159050919050565b61177c81611767565b82525050565b60006020820190506117976000830184611773565b92915050565b600081519050919050565b600082825260208201905092915050565b60005b838110156117d75780820151818401526020810190506117bc565b60008484015250505050565b6000601f19601f8301169050919050565b60006117ff8261179d565b61180981856117a8565b93506118198185602086016117b9565b611822816117e3565b840191505092915050565b6000602082019050818103600083015261184781846117f4565b905092915050565b6000819050919050565b6118628161184f565b811461186d57600080fd5b50565b60008135905061187f81611859565b92915050565b60006020828403121561189b5761189a6116d8565b5b60006118a984828501611870565b91505092915050565b600073ffffffffffffffffffffffffffffffffffffffff82169050919050565b60006118dd826118b2565b9050919050565b6118ed816118d2565b82525050565b600060208201905061190860008301846118e4565b92915050565b611917816118d2565b811461192257600080fd5b50565b6000813590506119348161190e565b92915050565b60008060408385031215611951576119506116d8565b5b600061195f85828601611925565b925050602061197085828601611870565b9150509250929050565b600080600060608486031215611993576119926116d8565b5b60006119a186828701611925565b93505060206119b286828701611925565b92505060406119c386828701611870565b9150509250925092565b6119d68161184f565b82525050565b60006020820190506119f160008301846119cd565b92915050565b600060208284031215611a0d57611a0c6116d8565b5b6000611a1b84828501611925565b91505092915050565b611a2d81611767565b8114611a3857600080fd5b50565b600081359050611a4a81611a24565b92915050565b60008060408385031215611a6757611a666116d8565b5b6000611a7585828601611925565b9250506020611a8685828601611a3b565b9150509250929050565b600080fd5b600080fd5b7f4e487b7100000000000000000000000000000000000000000000000000000000600052604160045260246000fd5b611ad2826117e3565b810181811067ffffffffffffffff82111715611af157611af0611a9a565b5b80604052505050565b6000611b046116ce565b9050611b108282611ac9565b919050565b600067ffffffffffffffff821115611b3057611b2f611a9a565b5b611b39826117e3565b9050602081019050919050565b82818337600083830152505050565b6000611b68611b6384611b15565b611afa565b905082815260208101848484011115611b8457611b83611a95565b5b611b8f848285611b46565b509392505050565b600082601f830112611bac57611bab611a90565b5b8135611bbc848260208601611b55565b91505092915050565b60008060008060808587031215611bdf57611bde6116d8565b5b6000611bed87828801611925565b9450506020611bfe87828801611925565b9350506040611c0f87828801611870565b925050606085013567ffffffffffffffff811115611c3057611c2f6116dd565b5b611c3c87828801611b97565b91505092959194509250565b600067ffffffffffffffff821115611c6357611c62611a9a565b5b611c6c826117e3565b9050602081019050919050565b6000611c8c611c8784611c48565b611afa565b905082815260208101848484011115611ca857611ca7611a95565b5b611cb3848285611b46565b509392505050565b600082601f830112611cd057611ccf611a90565b5b8135611ce0848260208601611c79565b91505092915050565b60008060408385031215611d0057611cff6116d8565b5b6000611d0e85828601611925565b925050602083013567ffffffffffffffff811115611d2f57611d2e6116dd565b5b611d3b85828601611cbb565b9150509250929050565b60008060408385031215611d5c57611d5b6116d8565b5b6000611d6a85828601611925565b9250506020611d7b85828601611925565b9150509250929050565b7f4e487b7100000000000000000000000000000000000000000000000000000000600052602260045260246000fd5b60006002820490506001821680611dcc57607f821691505b602082108103611ddf57611dde611d85565b5b50919050565b6000606082019050611dfa60008301866118e4565b611e0760208301856119cd565b611e1460408301846118e4565b949350505050565b60008190508160005260206000209050919050565b60006020601f8301049050919050565b600082821b905092915050565b600060088302611e7e7fffffffffffffffffffffffffffffffffffffffffffffffffffffffffffffffff82611e41565b611e888683611e41565b95508019841693508086168417925050509392505050565b6000819050919050565b6000611ec5611ec0611ebb8461184f565b611ea0565b61184f565b9050919050565b6000819050919050565b611edf83611eaa565b611ef3611eeb82611ecc565b848454611e4e565b825550505050565b600090565b611f08611efb565b611f13818484611ed6565b505050565b5b81811015611f3757611f2c600082611f00565b600181019050611f19565b5050565b601f821115611f7c57611f4d81611e1c565b611f5684611e31565b81016020851015611f65578190505b611f79611f7185611e31565b830182611f18565b50505b505050565b600082821c905092915050565b6000611f9f60001984600802611f81565b1980831691505092915050565b6000611fb88383611f8e565b9150826002028217905092915050565b611fd18261179d565b67ffffffffffffffff811115611fea57611fe9611a9a565b5b611ff48254611db4565b611fff828285611f3b565b600060209050601f8311600181146120325760008415612020578287015190505b61202a8582611fac565b865550612092565b601f19841661204086611e1c565b60005b8281101561206857848901518255600182019150602085019450602081019050612043565b868310156120855784890151612081601f891682611f8e565b8355505b6001600288020188555050505b505050505050565b7f4e487b7100000000000000000000000000000000000000000000000000000000600052601160045260246000fd5b60006120d48261184f565b91507fffffffffffffffffffffffffffffffffffffffffffffffffffffffffffffffff82036121065761210561209a565b5b600182019050919050565b600081519050919050565b600082825260208201905092915050565b600061213882612111565b612142818561211c565b93506121528185602086016117b9565b61215b816117e3565b840191505092915050565b600060808201905061217b60008301876118e4565b61218860208301866118e4565b61219560408301856119cd565b81810360608301526121a7818461212d565b905095945050505050565b6000815190506121c18161170e565b92915050565b6000602082840312156121dd576121dc6116d8565b5b60006121eb848285016121b2565b91505092915050565b600060408201905061220960008301856118e4565b61221660208301846119cd565b939250505056fea2646970667358221220500ed31b83e87cab4080e4d3accc23c67e6a60a590bcd02d6213e8b9362a26d664736f6c63430008140033",
  "linkReferences": {},
  "deployedLinkReferences": {}
}